:020000001028C6
:10000800FE00030EF2000408F3000A08F40083124D
:1000180003137F08F5004028112883019E288312C6
:100028000313A200A001A101200822078400572081
:10003800003A031931282008220784005720990024
:1000480083160313981C2428013083120313A00776
:100058000318A10A0030A10718280D30990083164B
:100068000313981C33280A3083120313990083164C
:100078000313981808003B288C1E4A288C127630E7
:100088008120003A03194A287608942075088312BB
:100098000313FF0074088A0073088400720E83003B
:1000A800FE0E7E0E090000308A000408840A8207CA
:1000B8000034543465347334743461346E346434C5
:1000C8006F34203455345334413452345434213449
:1000D800003419308316031399001815181298164E
:1000E80083120313981718160B178C128316031311
:1000F8008C16861406118B170800F100831203135F
:1001080018198828981C8C2818121816003008000E
:100118001A08F00071088400700880000130080097
:10012800F0007008831203139900831603139818BC
:0C013800080099286D2001301320A12838
:02400E0062FF4F
:00000001FF
