:0400000007EF00F016
:10000800118209ED00F071EF00F00600FACF01F05F
:10001800FBCF02F0E9CF03F0EACF04F0E1CF05F01F
:10002800E2CF06F0D9CF07F0DACF08F0F3CF09F026
:10003800F4CF0AF0F6CF0BF0F7CF0CF0F8CF0DF0B5
:10004800F5CF0EF046EC00F00EC0F5FF0DC0F8FF3E
:100058000CC0F7FF0BC0F6FF0AC0F4FF09C0F3FF9E
:1000680008C0DAFF07C0D9FF06C0E2FF05C0E1FFFC
:1000780004C0EAFF03C0E9FF02C0FBFF01C0FAFFAA
:1000880011921100F2A412000D0E0F181010D8A42E
:1000980009D0000E106E000E0F6E83BE02D0838E44
:1000A80001D0839E100ED66EF2940F4A102A1200C9
:1000B800F28AF194D59ED58CD59AD596D584D582D9
:1000C800D580100ED66ED58E12005CEC00F00F0EA7
:1000D800C16E959E839EF28EFFD7106A0F6A1190AB
:0800E8001192000169EF00F024
:020000040020DA
:08000000FFFFFFFFFFFFFFFF00
:020000040030CA
:0E000000000C1E1EFF8185FF0FC00FE00F4099
:00000001FF
