:020000001028C6
:10000800FE00030E83120313BC000408BD000A0897
:10001800BE007F08BF0045281128D601D701D801A6
:10002800D901831203178727A0008827A1008927F1
:10003800A2008A27A3008B27A4008C27A5008D2760
:10004800A6008E27A7008F27A8009027A900912730
:10005800AA009227AB009327AC009427AD00952700
:10006800AE009627AF009727B0009827B1009927D0
:10007800B2009A27B300831203139B27DD00830184
:100088001A2F403084002030B8000408B90014301A
:10009800BA003808840083170008BB00B80A39087A
:1000A800840083133B088000B90ABA0B4D280B1D46
:1000B800A82903305706031DA229D7015A08F000C2
:1000C8005B08F1005C08F2000030F3002030F40017
:1000D8004130F5007125031CF628831203135A08D2
:1000E800FB005B08FC005C08FD000030F8002030D5
:1000F800F9004130FA008422780883120313AA0019
:100108007908AB007A08AC000924831203132B0882
:10011800D5002A08D400851994285D0303191929E4
:10012800051BBD2802305D06031DBD280330B8003D
:100138003808DD0085130513851186010A30F7009C
:100148000030F8005508F3005408F2006430F0005D
:100158000030F10029267108FA007008F900CE2550
:10016800770883120313B8003808D8000517580811
:100178009A29851BA22903305D06031DA229DD01EA
:10018800DD0A85130513851186016430F7000030F8
:10019800F8005508FA005408F900CE2577088312AC
:1001A8000313B8007808B9006430F7000030F8008D
:1001B8005508F3005408F2006430F0000030F100F4
:1001C80029267108FA007008F900CE257708FF3A49
:1001D800013E831203133807BA003A08D600851780
:1001E80056085B29831203135A08FB005B08FC00BE
:1001F8005C08FD000030F800C830F9004230FA0011
:100208008422780883120313AA007908AB007A08BD
:10021800AC000924831203132B08D5002A08D40044
:10022800851933295D03031D33290230B8003808C6
:10023800DD0085130513851186010A30F0000030B2
:10024800F1005508F3005408F200292670088312BB
:100258000313B8003808D900851559085B29051B10
:10026800622902305D06031D62290330B800380890
:10027800DD0085130513851186010A30F70000306B
:10028800F8005508F3005408F2006430F00000301C
:10029800F10029267108FA007008F900CE257708C0
:1002A80083120313B8003808D80005175808B80097
:1002B8003807403E840083130008A129851BA22922
:1002C80003305D06031DA229DD01DD0A8513051330
:1002D800851186016430F7000030F8005508FA00EF
:1002E8005408F900CE25770883120313B80078085C
:1002F800B9006430F7000030F8005508F3005408DE
:10030800F2006430F0000030F10029267108FA008C
:100318007008F900CE257708FF3A013E83120313CF
:100328003807BA003A08D60085175608B8003807C3
:10033800403E8400831300088038860081010B1139
:100348000130B8003808D7073F08FF003E088A0088
:100358003D0884003C0E8300FE0E7E0E09008316C5
:1003680003134908CF004A08D0004B08D1000310F6
:10037800500D510DD2005208D3005308031DCB294C
:100388000030C9000030CA000030CB0008004C081B
:10039800CF004D08D0004E08D1000310500D510D6C
:1003A800D2005208D8005808031DE1290030C900BE
:1003B8000030CA000030CB00080058087B3ECF0050
:1003C8004F08D3074908CF004A08D0004B08D1008E
:1003D80010300310D10CD00CCF0CFF3E031DED29BB
:1003E8004F08D2005208D8004C08CF004D08D00062
:1003F8004E08D10010300310D10CD00CCF0CFF3EAA
:10040800031DFF294F08D2005208D8068030CF00BC
:100418004F08D805CA17CD17FF30CC05FF30CD05DA
:100428000030CE050030D4000030D5000030D600B2
:100438000730CF004F08D700491C302A4C08D40792
:100448004D08031103184D0A031DD5074E08031163
:1004580003184E0A031DD60701300310CB0CCA0C33
:10046800C90CFF3E031D312A01300310CC0DCD0D00
:10047800CE0DFF3E031D392A0130D702031D202A65
:100488000930CF004F08D700491C582A4C08D40718
:100498004D08031103184D0A031DD5074E08031113
:1004A80003184E0A031DD60701300310CB0CCA0CE3
:1004B800C90CFF3E031D592A01300310D60CD50C78
:1004C800D40CFF3E031D612A0130D702031D482AC0
:1004D8005408A0005508A1005608A2005308CF00F0
:1004E8004F08A3005808D0005008A400972483168A
:1004F80003132008C9002108CA002208CB000800FD
:10050800780883120313A0007908A1007A08A200D2
:100518000310210D220DA3002308A4002408031DA5
:100528009C2A0030F8000030F9000030FA0008007A
:100538007B08A0007C08A1007D08A2000310210D03
:10054800220DA3002308A9002908031DB22A0030A0
:10055800F8000030F9000030FA00080029087B3E56
:10056800A0002008A4077808A0007908A1007A084C
:10057800A20010300310A20CA10CA00CFF3E031D1A
:10058800BE2A2008A3002308A9007B08A0007C0835
:10059800A1007D08A20010300310A20CA10CA00C31
:1005A800FF3E031DD02A2008A3002308A906803097
:1005B800A0002008A905F917FC17FF30FB05FF303C
:1005C800FC050030FD050030A5000030A600003015
:1005D800A7000730A0002008A800781C012B7B0882
:1005E800A5077C08031103187C0A031DA6077D08CC
:1005F800031103187D0A031DA70701300310FA0C25
:10060800F90CF80CFF3E031D022B01300310FB0D03
:10061800FC0DFD0DFF3E031D0A2B0130A802031D32
:10062800F12A0930A0002008A800781C292B7B0893
:10063800A5077C08031103187C0A031DA6077D087B
:10064800031103187D0A031DA70701300310FA0CD4
:10065800F90CF80CFF3E031D2A2B01300310A70CE0
:10066800A60CA50CFF3E031D322B0130A802031D6A
:10067800192B2508F0002608F1002708F2002408A5
:10068800A0002008F3002908A1002108F40005258E
:100698007008F8007108F9007208FA00080083165B
:1006A80003133308B6003408B7003508B800031040
:1006B800370D380DB9003908BE003E08031D6B2BF5
:1006C8000030B0000030B1000030B200080030083F
:1006D800B6003108B7003208B8000310370D380DDE
:1006E800B9003908BF003F08031D812B0030B00056
:1006F8000030B1000030B20008000030BB0000300C
:10070800BC000030BD0089303F07B6003608BE0285
:100718003308B6003408B7003508B80010300310A5
:10072800B80CB70CB60CFF3E031D932B3608B90066
:100738003908BF003008B6003108B7003208B800E1
:1007480010300310B80CB70CB60CFF3E031DA52BD8
:100758003608B9003908BF068030B6003608BF052C
:10076800B417FF30B305FF30B4050030B505B11735
:10077800FF30B005FF30B1050030B2051830B600C3
:100788003608BA0001300310BB0DBC0DBD0DFF3E8D
:10079800031DC72B32083502031DD82B310834023C
:1007A800031DD82B30083302031CE52B3008B30295
:1007B8003108031C310FB4023208031C320AB50297
:1007C8003B1401300310B30DB40DB50DFF3E031DEE
:1007D800E62B0130BA02031DC62B3B08A0003C08DB
:1007E800A1003D08A2003E08B6003608A3003F0855
:1007F800B7003708A4009724831603132008B00015
:100808002108B1002208B2000800831203132A0845
:10081800AE002B08AF002C08B00003102F0D300DD0
:10082800B1003108B7003708031D232C0030AD0094
:100838000030AC000030AB000030AA0008002A08E5
:10084800AE002B08AF002C08B00017300310B00C16
:10085800AF0CAE0CFF3E031D2A2C2E08B100310848
:10086800B200AB17FF30AA05FF30AB050030AC056E
:100878002A08B3002B08B4002C08B500B6018E3046
:10088800B702B71F652C3708803A8F3E0318552CDE
:100898000030AD000030AC000030AB000030AA00E2
:1008A800080001300310B60CB50CB40CB30CFF3EB5
:1008B800031D562C0130AE002E08B7070319802CF3
:1008C800552C18303702031C7D2C0030AD00003049
:1008D800AC000030AB000030AA0008000130AE00C8
:1008E8000310B30DB40DB50DB60DAE0B742C01305D
:1008F800B7023708031D722C320803198E2CB3096E
:10090800B409B509B609B30A0319B40A0319B50A33
:100918000319B60A3608AD003508AC003408AB0038
:100928003308AA0008008316031323080319A12C0F
:10093800220821042004031DB42C0030A00000303C
:10094800A1000030A20008000130A5002508A30777
:1009580001300310A20CA10CA00CFF3E031DAD2C0E
:10096800FE3022050319CF2CA82C0130A50025083C
:10097800A3070130A007003003180130A107003099
:1009880003180130A20701300310A20CA10CA00C1F
:10099800FF3E031DC82CFF3022050319DE2CB92C9D
:1009A8000130A30201300310A00DA10DA20DFF3EDE
:1009B800031DD72CA11BE42C023023020318D42CCE
:1009C8002318EC2CFF30A0057F30A105FF30A205CD
:1009D8000310A30C2308A500A601A70110300310DB
:1009E800A50DA60DA70DFF3E031DF32C2508A00499
:1009F8002608A1042708A204240803190800A2173E
:100A08000800730803190D2D720871047004031D82
:100A1800202D0030F0000030F1000030F200080016
:100A28000130F5007508F30701300310F20CF10CE2
:100A3800F00CFF3E031D192DFE30720503193B2DE6
:100A4800142D0130F5007508F3070130F007003068
:100A580003180130F107003003180130F2070130A4
:100A68000310F20CF10CF00CFF3E031D342DFF3087
:100A7800720503194A2D252D0130F30201300310A8
:100A8800F00DF10DF20DFF3E031D432DF11B502D0E
:100A9800023073020318402D7318582DFF30F005EB
:100AA8007F30F105FF30F2050310F30C7308F500F1
:100AB800F601F70110300310F50DF60DF70DFF3EA6
:100AC800031D5F2D7508F0047608F1047708F20419
:100AD800740803190800F2170800F21F982D003057
:100AE800F6000030F7008030F8007009F90071094D
:100AF800FA007209FB00F90A0319FA0A0319FB0A3A
:100B08007908F6077A0803187A0F8B2D8C2DF707CA
:100B18007B0803187B0F912D922DF8077608F000BB
:100B28007708F1007808F200F51FBF2D0030F600B5
:100B38000030F7008030F8007309F9007409FA00F2
:100B48007509FB00F90A0319FA0A0319FB0A79085F
:100B5800F6077A0803187A0FB22DB32DF7077B082A
:100B680003187B0FB82DB92DF8077608F30077081E
:100B7800F4007808F5008030F2068030F506750834
:100B88007202031D080074087102031D080073082F
:100B98007002080083120313A101F81FDA2DF70968
:100BA800F809F70A0319F80AA101A10AFA1FE52DA5
:100BB800F909FA09F90A0319FA0A0130FB007B0856
:100BC800A106A201A3017708780403191C2EA0012D
:100BD800A00AF81BFB2D01300310F70DF80DFF3E9E
:100BE800031DF02D0130FB007B08A007ED2D01301F
:100BF8000310A20DA30DFF3E031DFC2D78087A02F9
:100C0800031D082E77087902031C112E7708F902B4
:100C18007808031CFA03FA02221401300310F80CB6
:100C2800F70CFF3E031D122E0130A002031DFB2D01
:100C380021080319242EA209A309A20A0319A30A49
:100C48002308F8002208F7000800F601F31F332EE6
:100C5800F209F309F20A0319F30AF601F60AF11F79
:100C68003A2EF009F109F00A0319F10A7008710423
:100C78000319672EF501F50AF11B4E2E01300310FA
:100C8800F00DF10DFF3E031D432E0130F4007408F2
:100C9800F507402E71087302031D542E7008720266
:100CA800031C5C2E7008F2027108031CF303F302A4
:100CB80001300310F10CF00CFF3E031D5D2E0130D6
:100CC800F502031D4E2E760803196F2EF209F3095B
:100CD800F20A0319F30A7308F1007208F000080019
:100CE80083160313C800C501C601C7014808470297
:100CF80003188E2EAF2683160313C300C4014308BE
:100D0800C5070318C60A4408C6070130C3004308CC
:100D1800C7077A2E48086B27831603132808B000E4
:100D28002908B1002A08B2004608A9004508A80009
:100D38004827831603132808B3002908B4002A0893
:100D4800B5005323831603133008C0003108C100CF
:100D58003208C200080083160313A201831203138A
:100D68000514B62E831203130510BA2E0730831606
:100D78000313A3000030A400A41BE72E0030831245
:100D880003130519013083160313A000230ACE2E7E
:100D98000310A00DFF3E031DCC2E2008A100210842
:100DA800A204831203138514000083120313851011
:100DB8000000FF3083160313A3070318A40AFF30AB
:100DC800A407A41FC22E22080800003083160313AC
:100DD800C9007030CA004130CB00643074268316D5
:100DE80003134008CC004108CD004208CE00B321CF
:100DF800831603134908DC004A08DD004B08DE00AF
:100E08000030B0007F30B1004330B2005C08B3005E
:100E18005D08B4005E08B500532383160313300839
:100E2800D9003108DA003208DB00080007308312E5
:100E380003139F00831603138601343085008B1734
:100E48008B160B15811281110108F83901388100C0
:100E58008312031381010030DA000030DB00003018
:100E6800DC00E92683160313590883120313DA00FA
:100E7800831603135A0883120313DB008316031324
:100E88005B0883120313342F83160313AD01A91FC4
:100E9800542FA809A909A80A0319A90AAD01AD0A7E
:100EA8002808A0002908A100A2018E30AB002B0859
:100EB800A3002D08AC002C08A40097248316031364
:100EC8002008A8002108A9002208AA000800831603
:100ED8000313AF002F08AB00AC01AD012B08A00035
:100EE8002C08A1002D08A2008E30AE002E08A30009
:100EF800A4019724831603132008A8002108A90039
:100F08002208AA0008003F340034063400345B3459
:100F180000344F340034663400346D3400347D348A
:100F28000034073400347F3400346734003401342B
:02400E0050FF61
:00000001FF
