:0400000007EF00F016
:0A000800188209ED04F0BFEF04F0C8
:100800000054657374616E646F20555341525421D6
:1008100000000600FACF03F0FBCF04F0E9CF05F0AB
:10082000EACF06F0E1CF07F0E2CF08F0D9CF09F028
:10083000DACF0AF0F3CF0BF0F4CF0CF0F6CF0DF0D7
:10084000F7CF0EF0F8CF0FF0F5CF10F09EAA0DD035
:100850009E9A110E016E000E026E95EC04F00009D6
:10086000D8B403D01150C6EC04F010C0F5FF0FC08F
:10087000F8FF0EC0F7FF0DC0F6FF0CC0F4FF0BC071
:10088000F3FF0AC0DAFF09C0D9FF08C0E2FF07C0C2
:10089000E1FF06C0EAFF05C0E9FF04C0FBFF03C09B
:1008A000FAFF18921100000E176E000E166E1BD084
:1008B00016501224146E17501320156E14C0F6FF34
:1008C00015C0F7FFF86A070EF76403D00800F5506B
:1008D00005D0F6CFE9FFF7CFEAFFEF50AD6EACA23F
:1008E000FED7164A172A16501224146E17501320DA
:1008F000156E14C0F6FF15C0F7FFF86A070EF7640F
:1009000003D00800F55005D0F6CFE9FFF7CFEAFF96
:10091000EF500009D8A4CCD70D0EAD6EACA2FED717
:100920000A0EAD6EACB21200FDD7ABB402D0ABA2D2
:1009300004D0AB98AB88000E120001C0D9FF02C0F2
:10094000DAFFAECFDFFF010E1200190EAF6EAC84DE
:10095000AC98AC8AAB8EAB88F28C9E9A9D8A9F9A9B
:10096000948E949C12000F0EC16EA5EC04F0F28ED2
:10097000010E126E080E136E53EC04F0FFD71890A0
:100980001892000EF86E0001B3EF04F0016E01C082
:08099000ADFFACB21200FDD76F
:020000040020DA
:08000000FFFFFFFFFFFFFFFF00
:020000040030CA
:0E000000000C1E1EFF8185FF0FC00FE00F4099
:00000001FF
